:100000000C94FB000C9418010C9418010C9418012A
:100010000C9418010C9418010C9418010C94E1092B
:100020000C9418010C9418010C9418010C941801EC
:100030000C9418010C9418010C9418010C941801DC
:100040000C9418010C9418010C9418010C941801CC
:100050000C94180107634236B79BD8A71A39685623
:1000600018AEBAAB558C1D3CB7CC5763BD6DEDFDDA
:10007000753EF6177231BF000000803F0800000097
:10008000BE922449123EABAAAA2ABECDCCCC4C3E8D
:1000900000000080BEABAAAAAA3E00000000BF007C
:1000A0000000803F0000000000084178D3BB438778
:1000B000D1133D190E3CC3BD4282AD2B3E68EC828C
:1000C00076BED98FE1A93E4C80EFFFBE01C4FF7F11
:1000D0003F00000000006E616E00696E66003138FE
:1000E0003A34363A323200323032312D30332D311B
:1000F000350031393400312E302E300000407A1076
:10010000F35A00A0724E18090010A5D4E80000E8C8
:100110007648170000E40B54020000CA9A3B000026
:1001200000E1F505000080969800000040420F00B5
:100130000000A08601000000102700000000E80376
:10014000000000006400000000000A000000000041
:100150000100000000002C76D888DC674F0823DF00
:10016000C1DFAE59E1B1B796E5E3E453C63AE651D3
:10017000997696E8E6C28426EB898C9B62ED407CFA
:100180006FFCEFBC9C9F40F2BAA56FA5F490055A96
:100190002AF75C936B6CF9676DC11BFCE0E40D47BB
:1001A000FEF520E6B500D0ED902E030094357705DE
:1001B0000080841E080000204E0A000000C80C3396
:1001C0003333330F986E12831141EF8D2114893B25
:1001D000E65516CFFEE6DB18D1844B381BF77C1DA5
:1001E000901DA4BBE424203284725E228100C9F1F8
:1001F00024ECA1E53D2711241FBECFE5D8E0DEBFEA
:10020000CDBF10E0A0E6B0E0E0E9F6E202C0059064
:100210000D92AC3AB107D9F721E0ACEAB0E001C0E9
:100220001D92A332B207E1F70E943E0B0C944613D5
:100230000C940000A3E1B0E0E0E2F1E00C94F80DD2
:100240007C011B016A01FC0117821682838181FFF8
:1002500066C3BE016F5F7F4F4B01F7019381F101D0
:1002600093FD859193FF81911F01882309F453C366
:10027000853239F493FD859193FF81911F01853279
:1002800039F4B70190E00E94941256016501E5CF60
:1002900010E0512C20E02032A0F48B3269F030F4D1
:1002A000803259F0833269F420612CC08D3239F0EC
:1002B000803339F4216026C02260246023C0286086
:1002C00021C027FD27C030ED380F3A3078F426FFE3
:1002D00006C0FAE01F9F300D1124132F13C06AE0EF
:1002E000569E300D1124532E20620CC08E3221F404
:1002F00026FD11C3206406C08C3611F4206802C0AC
:10030000883641F4F10193FD859193FF81911F019E
:100310008111C1CF9BEB980F933018F42061805E60
:1003200006C09BE9980F933008F0AAC12F7E26FFE4
:1003300016E02F73722E853621F4F22FF0647F2E93
:1003400008C0863621F4622F6068762E02C0111133
:10035000115077FE07C01C3348F444244394410EE7
:1003600027E00BC0183030F4212F06C027E04CE303
:10037000442E03C027E017E0412C560174E0A70E7D
:10038000B11CF6016081718182819381042DA401E9
:100390000E94A6116C01098100FF02C003FF06C084
:1003A00071FC07C072FC08C0612C08C03DE2632EDE
:1003B00005C02BE2622E02C090E2692E802F8C7065
:1003C00099F1662011F084E001C083E0851510F0FA
:1003D000512C0BC0581A73FC08C0B70180E290E0A2
:1003E0000E9494125A94C9F7F3CF662029F0B701FE
:1003F000862D90E00E94941203FD03C00AED10E0E8
:1004000002C006ED10E0F72DF0717F2EF801849107
:10041000882309F476C271108052B70190E00E94DF
:1004200094120F5F1F4FF2CF77FE0FC04C0C04FFEA
:1004300004C08A81813309F44A94141474F5F8E0F5
:10044000F41578F588E0482E2CC076FC2AC0812F60
:1004500090E08C159D059CF06CEFC6166FEFD606EC
:1004600074F0772D7068772E0AC0E2E0F0E0EC0FB0
:10047000FD1FE10FF11D8081803319F4115011111E
:10048000F4CF77FE0EC044244394410E812F90E0B8
:10049000C816D9062CF41C1904C04424439401C086
:1004A00010E077FE07C01C141D043CF496012F5F7A
:1004B0003F4F05C025E030E002C021E030E066207B
:1004C00011F02F5F3F4F112331F0412F50E04F5F6C
:1004D0005F4F240F351F452D50E02417350714F4C6
:1004E000521A01C0512C872D897049F4552039F0DA
:1004F000B70180E290E00E9494125A94F7CF6620F0
:1005000029F0B701862D90E00E94941273FC09C077
:10051000552039F0B70180E390E00E9494125A947C
:10052000F7CF77FE5FC09C2D8D2DD7FE02C090E0E7
:1005300080E0692E782E40E050E0C60184199109D0
:100540009D878C87960126193709280D391D812F23
:1005500090E0EE27FF27E81BF90BFF87EE87FFEF00
:100560006F167F0669F4B7018EE290E02B8B3A8B11
:10057000488B598B0E949412598948893A892B8952
:10058000C614D70454F06C857D85661577052CF468
:10059000F901E40FF51F818101C080E371E0671A62
:1005A00071084F5F5F4FEE85FF856E167F066CF01A
:1005B000B70190E02B8B3A8B488B598B0E94941299
:1005C0002B893A8948895989CACF6C147D0439F43A
:1005D0009A81963318F4953311F404FF81E3B7013F
:1005E00090E04BC08A81813309F00F7EB70190E023
:1005F0000E949412111105C074FE18C085E490E0A9
:1006000017C0B7018EE290E00E94941282E0662447
:100610006394680EF401E80FF11D8081B70190E04A
:100620000E949412115041F3862DF1CF85E690E09F
:10063000B7010E949412D7FC05C0C114D10439F44B
:1006400004FF05C0D194C194D1088DE201C08BE2B2
:10065000B70190E00E94941280E36AE0C616D104CC
:100660002CF08F5FFAE0CF1AD108F7CFB70190E0F6
:100670000E949412B701C601C0960E94941241C113
:10068000833631F0833779F0833509F058C021C0C3
:10069000560172E0A70EB11CF6018081898301E04A
:1006A00010E0640114C05601F2E0AF0EB11CF60177
:1006B000C080D18026FF03C0612F70E002C06FEFC1
:1006C0007FEFC6012B8B0E9489128C012B892F771B
:1006D00015C05601F2E0AF0EB11CF601C080D1800A
:1006E00026FF03C0612F70E002C06FEF7FEFC601ED
:1006F0002B8B0E947E128C012B892068722E23FD89
:100700001AC0852D90E008171907A8F4B70180E2F8
:1007100090E00E9494125A94F4CFF60177FC8591F0
:1007200077FE81916F01B70190E00E949412511001
:100730005A94015011090115110579F7E2C0843668
:1007400011F0893651F5560127FF09C0F4E0AF0ECC
:10075000B11CF60160817181828193810AC0F2E04F
:10076000AF0EB11CF60160817181882777FD8095FD
:10077000982F022F0F7697FF08C09095809570955F
:1007800061957F4F8F4F9F4F00682AE030E0A401B2
:100790000E94E812C82EC8183EC0022F853721F4E7
:1007A0000F7E2AE030E01DC0097F8F3691F018F4EB
:1007B000883559F0B0C0803719F0883711F0ABC0D8
:1007C000006104FF09C0046007C024FF08C0066080
:1007D00006C028E030E005C020E130E002C020E1A2
:1007E00032E0560107FF09C0F4E0AF0EB11CF6017C
:1007F000608171818281938108C0F2E0AF0EB11CEB
:10080000F6016081718180E090E0A4010E94E8120D
:10081000C82EC8180F7706FF0BC0202F2E7FC116D9
:1008200050F404FF0AC002FD08C0202F2E7E05C030
:10083000DC2C202F03C0DC2C01C0D12E24FF0DC0E6
:10084000FE01EC0DF11D8081803311F4297E09C079
:1008500022FF06C0D394D39404C0822F867809F077
:10086000D39423FD13C020FF06C01C2DD51418F40B
:10087000150D1D19D52CD51468F4B70180E290E050
:100880002B8B0E949412D3942B89F5CFD51410F49E
:100890005D1801C0512C24FF12C0B70180E390E025
:1008A0002B8B0E9494122B8922FF17C021FF03C0BB
:1008B00088E590E002C088E790E0B7010CC0822F85
:1008C000867859F021FD02C080E201C08BE227FD4D
:1008D0008DE2B70190E00E949412C11638F4B7017E
:1008E00080E390E00E9494121150F7CFCA94F40173
:1008F000EC0DF11D8081B70190E00E949412C110AF
:10090000F5CF552009F4C2CCB70180E290E00E94F7
:1009100094125A94F6CFF7018681978102C08FEF27
:100920009FEF6396E2E10C94140ECF93DF93D82FE0
:10093000C62F8EEE0E943F0D8D2F0E94650D8C2FCD
:100940000E94650DDF91CF910C945F0DCF92DF92E5
:10095000EF92FF920F931F93CF93DF93C82FF62E42
:10096000172F042F8EEE0E943F0D8C2F0E94650DD5
:100970008FEE0E945D0DCF2DD12F10E0E12CF12CD8
:10098000680181E0C81AD108E016F10671F0CE14B2
:10099000DF0419F40E94790D02C00E94720D888351
:1009A0008FEFE81AF80A2196EFCFDF91CF911F91D0
:1009B0000F91FF90EF90DF90CF900C945F0D0F930D
:1009C0001F93ACEAB0E0FD010481158126813781D7
:1009D000019311932193319320E0EC3FF207A1F7AB
:1009E0006093FC007093FD008093FE009093FF00E5
:1009F00060E070E0CB010D911D912D913D91600F54
:100A0000711F821F931F21E0A030B207A1F725E1DB
:100A100030E040E050E00E94C60DCA01B9011F91CC
:100A20000F910895CF93DF9300D0CDB7DEB71A8230
:100A3000198242E0BE016F5F7F4F8AEA0E94A604DE
:100A400089819A8198278927982790931A01809302
:100A5000190142E0BE016F5F7F4F8CEA0E94A6043D
:100A600089819A81982789279827909322018093DA
:100A7000210142E0BE016F5F7F4F8EEA0E94A60413
:100A800089819A8198278927982790930E018093CE
:100A90000D0142E0BE016F5F7F4F80EB0E94A60414
:100AA00089819A81982789279827909306018093B6
:100AB000050142E0BE016F5F7F4F82EB0E94A604FA
:100AC00089819A8198278927982790931E0180937E
:100AD0001D0142E0BE016F5F7F4F84EB0E94A604C0
:100AE00089819A8198278927982790931601809366
:100AF000150142E0BE016F5F7F4F86EB0E94A604A6
:100B000089819A8198278927982790931401809347
:100B1000130142E0BE016F5F7F4F88EB0E94A60485
:100B200089819A8198278927982790930801809333
:100B3000070142E0BE016F5F7F4F8AEB0E94A6046F
:100B400089819A8198278927982790931C018093FF
:100B50001B0142E0BE016F5F7F4F8CEB0E94A60439
:100B600089819A81982789279827909320018093DB
:100B70001F0142E0BE016F5F7F4F8EEB0E94A60413
:100B800089819A81982789279827909318018093C3
:100B900017010F900F90DF91CF910895CF92DF92C0
:100BA000EF92FF920F931F93CF93DF9300D0CDB7B7
:100BB000DEB71A8219826EE284EF0E9495048FE0FC
:100BC00097E20197F1F700C0000042E0BE016F5FBD
:100BD0007F4F86EF0E94A60429813A81322723277E
:100BE0003227A90160E070E0809115019091160113
:100BF0009A01AB01281B390B41095109A0911D0134
:100C0000B0911E010E94E50D6B017C018FE0F5940F
:100C1000E794D794C7948A95D1F760911F0170919A
:100C20002001CB01770FAA0BBB0BBC01CD012BE040
:100C3000660F771F881F991F2A95D1F720911701FA
:100C4000309118018901330F220B330BA901980150
:100C50002C0D3D1D4E1D5F1D0E94C60DC20ED31EE4
:100C6000E41EF51EC0920F01D0921001E092110116
:100C7000F09212010F900F90DF91CF911F910F9181
:100C8000FF90EF90DF90CF9008954F925F926F9218
:100C90007F928F929F92AF92BF92CF92DF92EF920C
:100CA000FF920F931F93CF93DF93CDB7DEB72797B4
:100CB0000FB6F894DEBF0FBECDBF8E010F5F1F4F82
:100CC00083E0F80111928A95E9F70E94CE0564EF5E
:100CD00084EF0E9495048FE19BEC0197F1F700C02F
:100CE000000043E0B80186EF0E94A60480900F0147
:100CF00090901001A0901101B090120190EA891A11
:100D00009FE0990AA108B108A5019401C501B401A9
:100D10000E94800D6C837D838E839F83E0911901F7
:100D2000F0911A01A0911301B09114019B01AC0143
:100D30001CE055954795379527951A95D1F70E9450
:100D4000F00D6C01FF24D7FCF094EF2CA0910D0165
:100D5000B0910E01A50194010E94F00DDC01CB01C0
:100D60002DE0B595A795979587952A95D1F78C0D88
:100D70009D1DAE1DBF1D0296A11DB11D32E0B59592
:100D8000A795979587953A95D1F79C01AD01305875
:100D90004F4F5F4FA0910501B09106010E94E50DF4
:100DA0002B013C014FE076946794579447944A9501
:100DB000D1F78981CA80D12CE12CF12CFE2CED2CAD
:100DC000DC2CCC24E82A8B81C82A65E0F594E794D2
:100DD000D794C7946A95D1F7A0910701B091080103
:100DE0002C813D814E815F810E94F00D9B01AC0101
:100DF00077E155954795379527957A95D1F72C83C7
:100E00003D834E835F83A0912101B0912201A50112
:100E100094010E94F00DDC01CB011BE0B595A79574
:100E2000979587951A95D1F72C813D814E815F81E9
:100E3000820F931FA41FB51FAF01FF0F660B770B27
:100E400002E0440F551F661F771F0A95D1F7840FE4
:100E5000951FA61FB71F880F991FAA1FBB1FA701A9
:100E60009601281B390B4A0B5B0BAAE6B8E10E94DE
:100E7000E50D97FD0BC0660F771F881F991FA30113
:100E800092010E94A40D69017A010AC0A301920196
:100E90000E94A40D69017A01CC0CDD1CEE1CFF1C24
:100EA0009927F7FC9A958F2D7E2D6D2D9B01AC0116
:100EB0000E94800D9B01AC01AEEDBBE00E94E50DF0
:100EC0004B015C01A3E4B3EEA70196010E94F30D70
:100ED000BB2797FDB095AB2F4501BB2497FCB09481
:100EE000AB2C880D991DAA1DBB1D8153914FAF4F8F
:100EF000BF4F44E0B595A795979587954A95D1F74B
:100F0000BC01CD016C0D7D1D8E1D9F1D60930901DF
:100F100070930A0180930B0190930C010E94DF04EF
:100F20006093090170930A0180930B0190930C0167
:100F300027960FB6F894DEBF0FBECDBFDF91CF91DD
:100F40001F910F91FF90EF90DF90CF90BF90AF90E7
:100F50009F908F907F906F905F904F9008950E9428
:100F600045066091090170910A0180910B019091F1
:100F70000C010895CF930E94210D8AE18A95F1F723
:100F800000C00E9412050E94CE05C5E10E944506E0
:100F9000C150E1F7CF9108950F931F93CF93DF9343
:100FA00000D000D01F92CDB7DEB7682FFE0131967A
:100FB00085E0DF011D928A95E9F7BA9AC29ABFEFE0
:100FC00020E782E0B15020408040E1F700C00000FF
:100FD000C298AFE9BCE81197F1F700C00000C29ACF
:100FE000B2E0BA95F1F700C0BA9828E62A95F1F771
:100FF000B29B02C08FEF4DC085ED8A95F1F70000DE
:10100000B29BF8CF95ED9A95F1F70000AE014A5FDB
:101010005F4FA1E0B0E027E030E090E0B29BFECF70
:1010200080E58A95F1F7B29B07C08D01022E01C0C1
:10103000000F0A94EAF7902BB299FECF21503109A4
:1010400068F79193E417F50731F7BA9AC29A9FEFC0
:10105000A0E7B2E09150A040B040E1F700C000002E
:1010600089819B814A81282F30E0240F311D290F6F
:10107000311D4C81240F311D4D8150E0241735075F
:1010800009F0B8CF662321F0613009F0B3CF01C079
:10109000892F0F900F900F900F900F90DF91CF91AD
:1010A0001F910F91089581E00E94CC070895C09888
:1010B000B89A8FEB93E00197F1F700C00000B89861
:1010C00090EA9A95F1F786B3E7E4F3E03197F1F708
:1010D00000C0000081700895C098B89A92E09A9577
:1010E000F1F700C08111B89880EA8A95F1F7B898B5
:1010F0000895C098B89A82E08A95F1F700C0B89830
:1011000095E29A95F1F7000086B398E79A95F1F782
:1011100081700895CF93DF93D82FC9E0C15031F08B
:101120008D2F81700E946C08D695F8CFDF91CF91FA
:101130000895CF93DF93D9E0C0E0D15049F00E94E9
:10114000790820E8829FC0011124C695C82BF5CFED
:101150008C2FDF91CF910895CF93F8940E94570878
:101160008CEC0E948A0884E40E948A080E94790814
:101170008823E1F30E9457088CEC0E948A088EEBCA
:101180000E948A080E949908C82F0E9499087894A2
:10119000682F70E0762F66276C0F711D072E000CEC
:1011A000880B990B0E94520F20E030E040E85DE38D
:1011B0000E94DE0FCF910895C198B99A8FEB93E00A
:1011C0000197F1F700C00000B99890EA9A95F1F7FD
:1011D00086B3E7E4F3E03197F1F700C000008270D6
:1011E0000895C198B99A92E09A95F1F700C08111DB
:1011F000B99880EA8A95F1F7B9980895C198B99A93
:1012000082E08A95F1F700C0B99895E29A95F1F7D6
:10121000000086B398E79A95F1F786958170089556
:10122000CF93DF93D82FC9E0C15031F08D2F81705B
:101230000E94F108D695F8CFDF91CF910895CF9312
:10124000DF93D9E0C0E0D15049F00E94FE0820E8C9
:10125000829FC0011124C695C82BF5CF8C2FDF913A
:10126000CF910895CF93F8940E94DC088CEC0E94F3
:10127000100984E40E9410090E94FE088823E1F30B
:101280000E94DC088CEC0E9410098EEB0E94100971
:101290000E941F09C82F0E941F097894682F70E0D0
:1012A000762F66276C0F711D072E000C880B990B8B
:1012B0000E94520F20E030E040E85DE30E94DE0F24
:1012C000CF91089580FF02C0949A01C0949881FF45
:1012D00002C0959A01C0959882FF02C0969A01C0FB
:1012E000969883FF02C0979A089597980895CF9390
:1012F000C82F939A82958F700E9462099398939A4F
:101300008C2F0E946209939885E88A95F1F7000076
:10131000CF91089592980C947709929A0C9477093A
:10132000CF93DF93EC018991882319F00E948D09F6
:10133000FACFDF91CF91089590E4699F800D112439
:1013400080680C948A09CF938C9A8D9A8E9A8F9A82
:101350008B9A8A9A8FE295E70197F1F700C0000017
:1013600092989398C3E0939A83E00E9462099398BD
:101370008FE097E20197F1F700C00000C15099F7A4
:10138000939A82E00E94620993988FEC97E001970C
:10139000F1F700C0000088E20E948A0988E00E94FC
:1013A0008A0981E00E948A098FE99FE00197F1F79D
:1013B00000C0000086E00E948A098CE0CF910C9466
:1013C0008A091F920F920FB60F9211248F939F9349
:1013D000809103019091040101968C33910529F0CD
:1013E000909304018093030110C0109204011092A5
:1013F00003018091610090916200019690936200D8
:101400008093610081E08093600080916100909101
:101410006200CC9769F41092620010926100809192
:1014200001019091020101969093020180930101C4
:101430008091010190910201489724F010920201DD
:10144000109201018091610090916200009741F03B
:101450008F30910529F08E31910511F08D9749F467
:101460008091030190910401892B19F481E080930C
:1014700000019F918F910F900FBE0F901F901895B4
:101480002AB128612AB920B5266820BD9B01AC018C
:1014900084E0220F331F441F551F8A95D1F760E067
:1014A00072E18AE790E00E94A40D8FEF820F89B964
:1014B000DA01C9010197A109B109892F9A2FAB2F30
:1014C000BB2780BD08955D9BFECF8CB908950F9317
:1014D0001F93CF938C01C0E0F801EC0FF11D8081C8
:1014E000882321F00E94630ACF5FF6CFCF911F912E
:1014F0000F9108959B0121503109FC01E60FF71F60
:10150000DC01AD01481B590B421753073CF44C91C9
:1015100052915D93408321503109F3CF0895EF92AA
:10152000FF920F931F93CF93DF938B019A01FB01DF
:101530004AE0E42EF12CEF01C01BD10B009739F0EB
:10154000B7010E94900D805D8193CB01F4CFF8012B
:10155000EC0FFD1F80E3C217D3071CF42196819383
:10156000FACFBE01C8010E947A0AF801EC0FFD1FF4
:101570001082CE01DF91CF911F910F91FF90EF90DC
:1015800008952F923F924F925F926F927F928F9227
:101590009F92AF92BF92CF92DF92EF92FF920F9302
:1015A0001F93CF93DF934B015C01EA0189010E94F5
:1015B0001F0F6B017C0140E050E0BE01C6010E949C
:1015C0008F0A1C010115110509F445C0FE01E80F41
:1015D000F91F8EE28083B801012E000C880B990B55
:1015E0000E94520F9B01AC0160E070E080E291E448
:1015F0000E9441102B013C01B601DD0C880B990BB8
:101600000E94520F9B01AC01C501B4010E94520E11
:101610002FEF221A320AC20DD31DA30192010E949C
:10162000DE0F0E941F0FDC01CB01A801BE01DF917C
:10163000CF911F910F91FF90EF90DF90CF90BF90CF
:10164000AF909F908F907F906F905F904F903F9062
:101650002F900C948F0ADF91CF911F910F91FF90E3
:10166000EF90DF90CF90BF90AF909F908F907F9042
:101670006F905F904F903F902F900895CF93DF939E
:10168000CDB7DEB7C758D1090FB6F894DEBF0FBE8D
:10169000CDBF8FEF8ABB1BBA84B7806884BF84B785
:1016A000806884BF80EF84BB15BA8EB588608EBD1C
:1016B0008EB584608EBD82E19AE79BBD8ABD80E1D4
:1016C00089BF78940E94BA070E94A30960E875E276
:1016D00080E090E00E94400A612CC957DF4F1882D9
:1016E000C758D04010E0A12C912C812C712C00E027
:1016F000D12CC12CB12C2E0125E7420E511C7E01AC
:101700008DE6E80EF11C1E0195E6290E311CCE0176
:10171000CD96EF969FAF8EAFEF974E96C158DF4FA5
:1017200099838883CF57D0400A97CF57DF4F99834B
:101730008883C158D0400A97CD57DF4F998388835B
:10174000C358D0404497CB57DF4F99838883C558FF
:10175000D04080916000882309F477C00E94AC08D3
:10176000062FD72EC82EB92E9F938F937F936F93FA
:101770008DE690E09F938F935F924F920E94C612E6
:1017800060E080E00E949C09C2010E9490090E94D2
:101790003209A62E972E882E792E9F938F937F93B2
:1017A0006F9387E790E09F938F93FF92EF920E9451
:1017B000C61260E088E00E949C09C7010E9490095F
:1017C0000E945308182F812F012E000C990B9F9314
:1017D0001F9381E890E09F938F933F922F920E94F6
:1017E000C61261E080E00E949C09C1010E9490093C
:1017F0000E94AF0724E630E040E050E00E94C60DB2
:10180000622EC957DF4F3883C758D0403F932F937C
:101810008CE890E09F938F93EF968FADEF978F9327
:10182000EE969FADEE979F930E94C61261E088E00E
:101830000E949C0986E990E00E9490091092600045
:101840000FB6F894DEBF0FBECDBF80910001882394
:1018500009F497C021E030E0AE01455A5F4F602F98
:101860007D2D8C2D9B2D0E94C10A21E030E0AE0120
:101870004F5A5F4F6A2D792D882D972D0E94C10AEE
:10188000812F012E000C990B9F931F9386E890E007
:101890009F938F93CC57DF4F8881C458D0408F934C
:1018A000CD57DF4F9881C358D0409F930E94C612F6
:1018B000C957DF4F2881C758D0402F936F9286E8D1
:1018C00090E09F938F93CA57DF4F8881C658D040CE
:1018D0008F93CB57DF4F9881C558D0409F930E947C
:1018E000C612CA57DF4F2881C658D0402F93CB5716
:1018F000DF4F8881C558D0408F93CC57DF4F9881F8
:10190000C458D0409F93CD57DF4F2881C358D04053
:101910002F93CE57DF4F8881C258D0408F93CF5737
:10192000DF4F9881C158D0409F93C058DF4F288126
:10193000C058D0402F93C158DF4F8881CF57D04037
:101940008F938EE990E09F938F9381E090E08C0FCE
:101950009D1F9F938F930E94C6129FEF29E688E1F7
:10196000915020408040E1F700C00000CE01019678
:101970000E94670A109200010FB6F894DEBF0FBEF6
:10198000CDBF80910101909102012AE030E0B901C0
:101990000E94900DCB01B9010E94900DFC01ED5900
:1019A000FF4F808180958BBB80E185BB8FE097E204
:1019B0000197F1F700C000008091010190910201B0
:1019C000B9010E94900DFC01ED59FF4F8081809577
:1019D0008BBB80E285BB8FE097E20197F1F700C0F7
:1019E00000008091610090916200B9010E94900D09
:1019F000CB01B9010E94900DFC01ED59FF4F808190
:101A000080958BBB80E485BB8FE097E20197F1F76F
:101A100000C000008091610090916200B9010E94B5
:101A2000900DFC01ED59FF4F808180958BBB80E8C4
:101A300085BB8FE097E20197F1F700C0000015BA6F
:101A400088CE11B810B8089594EA96BF06B607FE7E
:101A5000FDCF91B1987F983021F0903111F081E065
:101A6000089583B984E886BF06B607FEFDCF81B12D
:101A7000887F883111F0803491F780E0089524EA5E
:101A800034E844E926BF06B607FEFDCF91B1987F42
:101A9000983011F09031B1F783B936BF06B607FE22
:101AA000FDCF91B1987F903211F0983529F446BF5F
:101AB00006B604FCFDCFE6CF08950C94240D84E90E
:101AC00086BF06B604FCFDCF089583B984E886BFBF
:101AD00006B607FEFDCF91B1987F81E0983209F4F8
:101AE00080E0089584EC86BF06B607FEFDCF83B183
:101AF000089584E886BF06B607FEFDCF83B108953A
:101B0000DB018F939F930E94E50DBF91AF91A29F40
:101B1000800D911DA39F900DB29F900D11240895EB
:101B200097FB072E16F4009407D077FD09D00E948A
:101B30002F0E07FC05D03EF4909581959F4F089598
:101B4000709561957F4F0895A1E21A2EAA1BBB1BC9
:101B5000FD010DC0AA1FBB1FEE1FFF1FA217B30779
:101B6000E407F50720F0A21BB30BE40BF50B661F8F
:101B7000771F881F991F1A9469F760957095809553
:101B800090959B01AC01BD01CF010895052E97FBF7
:101B90001EF400940E94DD0D57FD07D00E94A40D95
:101BA00007FC03D04EF40C94DD0D50954095309514
:101BB00021953F4F4F4F5F4F0895909580957095B9
:101BC00061957F4F8F4F9F4F08950E94430EA59FB1
:101BD000900DB49F900DA49F800D911D1124089528
:101BE000B7FF0C94E50D0E94E50D821B930B089541
:101BF0002F923F924F925F926F927F928F929F921D
:101C0000AF92BF92CF92DF92EF92FF920F931F930A
:101C1000CF93DF93CDB7DEB7CA1BDB0B0FB6F894BB
:101C2000DEBF0FBECDBF09942A88398848885F84FB
:101C30006E847D848C849B84AA84B984C884DF806C
:101C4000EE80FD800C811B81AA81B981CE0FD11D50
:101C50000FB6F894DEBF0FBECDBFED010895AA1BED
:101C6000BB1B51E107C0AA1FBB1FA617B70710F087
:101C7000A61BB70B881F991F5A95A9F780959095B9
:101C8000BC01CD010895A29FB001B39FC001A39FE5
:101C9000700D811D1124911DB29F700D811D1124A5
:101CA000911D08955058BB27AA270ED04DC13ED193
:101CB00030F043D120F031F49F3F11F41EF433C1D2
:101CC0000EF4E095E7FB29C1E92F4FD180F3BA1755
:101CD000620773078407950718F071F49EF567C1D2
:101CE0000EF4E0950B2EBA2FA02D0B01B901900137
:101CF0000C01CA01A0011124FF27591B99F0593F7B
:101D000050F4503E68F11A16F040A22F232F342FC2
:101D10004427585FF3CF469537952795A795F04010
:101D20005395C9F77EF41F16BA0B620B730B840B25
:101D3000BAF09150A1F0FF0FBB1F661F771F881FDD
:101D4000C2F70EC0BA0F621F731F841F48F4879535
:101D500077956795B795F7959E3F08F0B3CF939524
:101D6000880F08F09927EE0F9795879508950CD066
:101D7000EBC0E3D040F0DAD030F021F45F3F19F04F
:101D8000CCC0511115C1CFC0F0D098F39923C9F33D
:101D90005523B1F3951B550BBB27AA276217730771
:101DA000840738F09F5F5F4F220F331F441FAA1F25
:101DB000A9F333D00E2E3AF0E0E830D091505040E5
:101DC000E695001CCAF729D0FE2F27D0660F771F93
:101DD000881FBB1F261737074807AB07B0E809F075
:101DE000BB0B802DBF01FF2793585F4F2AF09E3F0A
:101DF000510568F092C0DCC05F3FECF3983EDCF325
:101E0000869577956795B795F7959F5FC9F7880F82
:101E1000911D9695879597F90895E1E0660F771FD4
:101E2000881FBB1F621773078407BA0720F0621B65
:101E3000730B840BBA0BEE1F88F7E095089504D05E
:101E40006894B111B5C0089598D088F09F5790F06C
:101E5000B92F9927B751A0F0D1F0660F771F881FCF
:101E6000991F1AF0BA95C9F712C0B13081F09FD00E
:101E7000B1E008959CC0672F782F8827B85F39F0AC
:101E8000B93FCCF3869577956795B395D9F73EF42E
:101E900090958095709561957F4F8F4F9F4F0895D6
:101EA000E89409C097FB3EF49095809570956195F4
:101EB0007F4F8F4F9F4F9923A9F0F92F96E9BB27AA
:101EC0009395F695879577956795B795F111F8CF26
:101ED000FAF4BB0F11F460FF1BC06F5F7F4F8F4F91
:101EE0009F4F16C0882311F096E911C0772321F087
:101EF0009EE8872F762F05C0662371F096E8862F1F
:101F000070E060E02AF09A95660F771F881FDAF775
:101F1000880F9695879597F9089597F99F6780E8B8
:101F200070E060E008959FEF80EC089500240A942B
:101F30001616170618060906089500240A941216A4
:101F40001306140605060895092E0394000C11F4D7
:101F5000882352F0BB0F40F4BF2B11F460FF04C084
:101F60006F5F7F4F8F4F9F4F089557FD9058440FDD
:101F7000551F59F05F3F71F04795880F97FB991FE8
:101F800061F09F3F79F087950895121613061406A5
:101F9000551FF2CF4695F1DF08C016161706180632
:101FA000991FF1CF86957105610508940895E8940D
:101FB000BB2766277727CB0197F908950BD0C4CFAD
:101FC000B5DF28F0BADF18F0952309F0A6CFABCF24
:101FD0001124EECFCADFA0F3959FD1F3950F50E007
:101FE000551F629FF001729FBB27F00DB11D639FCB
:101FF000AA27F00DB11DAA1F649F6627B00DA11D71
:10200000661F829F2227B00DA11D621F739FB00D16
:10201000A11D621F839FA00D611D221F749F332786
:10202000A00D611D231F849F600D211D822F762F1F
:102030006A2F11249F5750408AF0E1F088234AF01C
:10204000EE0FFF1FBB1F661F771F881F9150504068
:10205000A9F79E3F510570F060CFAACF5F3FECF328
:10206000983EDCF3869577956795B795F795E79554
:102070009F5FC1F7FE2B880F911D9695879597F965
:102080000895FA01EE0FFF1F30962105310599F1F1
:102090006115710561F48038BFE39B0749F16894CD
:1020A0009038810561F08038BFEF9B0741F099239C
:1020B00042F5FF3FE1053105210511F1E89408944F
:1020C000E795D901AA2329F4AB2FBE2FF85FD0F3EF
:1020D00010C0FF5F70F4A695E0F7F73950F019F0E3
:1020E000FF3A38F49F779F930CD00F9007FC9058DD
:1020F00008953EF018CF60E070E080E89FE3089517
:102100004FE79F775F934F933F932F939ED02F91ED
:102110003F914F915F9152DF05C019F40EF0FDCE53
:1021200046CF01CF2ADFC8F39638C0F707F80F92E1
:10213000E8942BE33AEA48EB5FE74EDF0F920F9209
:102140000F924DB75EB70F92C0D0E4E5F0E016D025
:102150004F915F91EF91FF91E595EE1FFF1F49F0C1
:10216000FE57E0684427EE0F441FFA95E1F74195CA
:10217000550B32D00F9007FE26C00895DF93CF9302
:102180001F930F93FF92EF92DF927B018C01689473
:1021900005C0DA2EEF011EDFFE01E894A59125911E
:1021A000359145915591AEF3EF018EDDFE0197011A
:1021B000A801DA9479F7DF90EF90FF900F911F91CB
:1021C000CF91DF9108959B01AC0160E070E080E861
:1021D0009FE3CDCDA2CEACC0D0DEE8F39923D9F3F6
:1021E000940F511DBBF39150504094F059F0882347
:1021F00032F0660F771F881F91505040C1F79E3F05
:10220000510544F7880F911D9695879597F9089584
:102210005F3FACF0983E9CF0BB278695779567951D
:10222000B79508F4B1609395C1F7BB0F58F711F457
:1022300060FFE8CF6F5F7F4F8F4F9F4FE3CFB8CEE8
:102240000EF076C070CE689468CE97DEC8F39923FE
:10225000D1F3C6F3DF93CF931F930F93FF92C92F50
:10226000DD2788232AF02197660F771F881FDAF76A
:1022700020E030E040E85FEB9FE3883920F0803ECB
:1022800030F021968F770FDDECE7F0E003C00BDD37
:10229000E9EAF0E073DF8B01BE01EC01FB2E6F5722
:1022A00071097595771F880B990BFCDD28E132E7E2
:1022B00041E35FE38FDEAF2D9801AE01FF900F91F8
:1022C0001F91CF91DF9100DD3FCEFA01DC01AA0F13
:1022D000BB1F9B01AC01BF5728F42227332744279B
:1022E00050781FC0B75188F4AB2F0024469537951E
:1022F0002795011CA395D2F3002069F0220F331F0C
:10230000441FB395DAF30DD0CDCC61307105A0E850
:102310008A07B94630F49B01AC01662777278827E6
:102320009078309621F0208331834283538308953F
:102330009F3F31F0915020F4879577956795B79539
:10234000880F911D9695879597F90895283008F084
:1023500027E03327DA01990F311D87FD9160009640
:102360006105710539F432602E5F3D9330E32A95A3
:10237000E1F708959F3F30F080387105610509F05D
:102380003C5F3C5F3D93913008F08068911DDF9386
:10239000CF931F930F93FF92EF92192F987F9695EB
:1023A000E92F96959695E90FFF27EA5AFE4F992750
:1023B0003327EE24FF24A701E70105900894079432
:1023C00028F4360FE71EF81E491F511D660F771FB0
:1023D000881F991F0694A1F70590079428F4E70E2B
:1023E000F81E491F561FC11D770F881F991F661FB2
:1023F0000694A1F70590079428F4F80E491F561F7C
:10240000C71FD11D880F991F661F771F0694A1F75C
:102410000590079420F4490F561FC71FD81F990F26
:10242000661F771F881F0694A9F78491109517706F
:1024300041F0D695C79557954795F794E7941A9527
:10244000C1F7ECEFF0E06894159015913591659126
:10245000959105907FE27395E118F10A430B560BB5
:10246000C90BD009C0F7E10CF11E431F561FC91F4D
:10247000D01D7EF4703311F48A95E6CFE8940150B4
:1024800030F0080F0AF40027021708F4202F2395D4
:10249000022F7A3328F079E37D932A95E9F710C06B
:1024A0007D932A9589F606949795679537951795A4
:1024B0001794E118F10A430B560BC90BD00998F099
:1024C00023957E9173957A3308F070E37C93201303
:1024D000B8F77E9170617D9330F0839571E37D93C1
:1024E00070E32A95E1F71124EF90FF900F911F916F
:1024F000CF91DF91992787FD90950895FC01059074
:10250000615070400110D8F7809590958E0F9F1FF5
:102510000895FC016150704001900110D8F780953A
:1025200090958E0F9F1F08950F931F93CF93DF9366
:10253000182F092FEB018B8181FD03C08FEF9FEFD7
:1025400020C082FF10C04E815F812C813D814217E7
:1025500053077CF4E881F9819F012F5F3F4F398356
:102560002883108306C0E885F985812F0995892B7A
:1025700029F72E813F812F5F3F4F3F832E83812F8D
:10258000902FDF91CF911F910F910895AEE0B0E0B1
:10259000ECECF2E10C94060E0D891E8986E08C832A
:1025A0001A8309838FEF9FE79E838D83AE01475E79
:1025B0005F4F6F89788DCE0101960E941A01EF81DD
:1025C000F885E00FF11F10822E96E4E00C94220EA5
:1025D000FA01AA27283051F1203181F1E8946F9354
:1025E0006E7F6E5F7F4F8F4F9F4FAF4FB1E03ED0FA
:1025F000B4E03CD0670F781F891F9A1FA11D680F98
:10260000791F8A1F911DA11D6A0F711D811D911DCA
:10261000A11D20D009F468943F912AE0269F11243F
:102620003019305D3193DEF6CF010895462F4770A3
:10263000405D4193B3E00FD0C9F7F6CF462F4F70FE
:10264000405D4A3318F0495D31FD4052419302D05C
:10265000A9F7EACFB4E0A695979587957795679502
:10266000BA95C9F700976105710508959B01AC0102
:102670000A2E06945795479537952795BA95C9F729
:10268000620F731F841F951FA01D0895F894FFCF3C
:102690000101007E0CB69ECCDAFA0EFEDE5765779D
:1026A0003D25312E3166005A65773D25312E316644
:1026B0000057696C673D25312E3164004369733DD5
:1026C00025312E3164004369733D3938310073255B
:0C26D000732C25732C25732C25736500DA
:00000001FF
